{
  "contractName": "Voting",
  "abi": [
    {
      "inputs": [
        {
          "internalType": "string[]",
          "name": "_candidateList",
          "type": "string[]"
        }
      ],
      "payable": false,
      "stateMutability": "nonpayable",
      "type": "constructor"
    },
    {
      "constant": true,
      "inputs": [
        {
          "internalType": "uint256",
          "name": "",
          "type": "uint256"
        }
      ],
      "name": "candidateList",
      "outputs": [
        {
          "internalType": "string",
          "name": "",
          "type": "string"
        }
      ],
      "payable": false,
      "stateMutability": "view",
      "type": "function"
    },
    {
      "constant": true,
      "inputs": [
        {
          "internalType": "string",
          "name": "",
          "type": "string"
        }
      ],
      "name": "votesReceived",
      "outputs": [
        {
          "internalType": "uint8",
          "name": "",
          "type": "uint8"
        }
      ],
      "payable": false,
      "stateMutability": "view",
      "type": "function"
    },
    {
      "constant": true,
      "inputs": [
        {
          "internalType": "string",
          "name": "candidate",
          "type": "string"
        }
      ],
      "name": "totalVotesFor",
      "outputs": [
        {
          "internalType": "uint8",
          "name": "",
          "type": "uint8"
        }
      ],
      "payable": false,
      "stateMutability": "view",
      "type": "function"
    },
    {
      "constant": false,
      "inputs": [
        {
          "internalType": "string",
          "name": "candidate",
          "type": "string"
        }
      ],
      "name": "voteForCandidate",
      "outputs": [],
      "payable": false,
      "stateMutability": "nonpayable",
      "type": "function"
    },
    {
      "constant": true,
      "inputs": [
        {
          "internalType": "string",
          "name": "candidate",
          "type": "string"
        }
      ],
      "name": "validCandidate",
      "outputs": [
        {
          "internalType": "bool",
          "name": "",
          "type": "bool"
        }
      ],
      "payable": false,
      "stateMutability": "view",
      "type": "function"
    }
  ],
  "bytecode": "0x60806040523480156200001157600080fd5b5060405162000beb38038062000beb8339818101604052620000379190810190620002c3565b80600190805190602001906200004f92919062000057565b5050620003c2565b828054828255906000526020600020908101928215620000ab579160200282015b82811115620000aa57825182908051906020019062000099929190620000be565b509160200191906001019062000078565b5b509050620000ba919062000145565b5090565b828054600181600116156101000203166002900490600052602060002090601f016020900481019282601f106200010157805160ff191683800117855562000132565b8280016001018555821562000132579182015b828111156200013157825182559160200191906001019062000114565b5b50905062000141919062000176565b5090565b6200017391905b808211156200016f57600081816200016591906200019e565b506001016200014c565b5090565b90565b6200019b91905b80821115620001975760008160009055506001016200017d565b5090565b90565b50805460018160011615610100020316600290046000825580601f10620001c65750620001e7565b601f016020900490600052602060002090810190620001e6919062000176565b5b50565b600082601f830112620001fc57600080fd5b8151620002136200020d8262000336565b62000308565b9150818183526020840193506020810190508360005b838110156200025d578151860162000242888262000267565b84526020840193506020830192505060018101905062000229565b5050505092915050565b600082601f8301126200027957600080fd5b8151620002906200028a826200035f565b62000308565b91508082526020830160208301858383011115620002ad57600080fd5b620002ba8382846200038c565b50505092915050565b600060208284031215620002d657600080fd5b600082015167ffffffffffffffff811115620002f157600080fd5b620002ff84828501620001ea565b91505092915050565b6000604051905081810181811067ffffffffffffffff821117156200032c57600080fd5b8060405250919050565b600067ffffffffffffffff8211156200034e57600080fd5b602082029050602081019050919050565b600067ffffffffffffffff8211156200037757600080fd5b601f19601f8301169050602081019050919050565b60005b83811015620003ac5780820151818401526020810190506200038f565b83811115620003bc576000848401525b50505050565b61081980620003d26000396000f3fe608060405234801561001057600080fd5b50600436106100575760003560e01c80634a3bf3771461005c578063538c91b21461008c5780638d4b44d9146100bc578063b13c744b146100ec578063e89927ef1461011c575b600080fd5b61007660048036036100719190810190610477565b610138565b6040516100839190610662565b60405180910390f35b6100a660048036036100a19190810190610477565b610186565b6040516100b39190610625565b60405180910390f35b6100d660048036036100d19190810190610436565b610227565b6040516100e39190610662565b60405180910390f35b610106600480360361010191908101906104b8565b61025d565b6040516101139190610640565b60405180910390f35b61013660048036036101319190810190610477565b610316565b005b60006001151561014783610186565b15151461015357600080fd5b60008260405161016391906105f7565b908152602001604051809103902060009054906101000a900460ff169050919050565b600080600090505b60018054905081101561021c57826040516020016101ac91906105f7565b60405160208183030381529060405280519060200120600182815481106101cf57fe5b906000526020600020016040516020016101e9919061060e565b60405160208183030381529060405280519060200120141561020f576001915050610222565b808060010191505061018e565b50600090505b919050565b6000818051602081018201805184825260208301602085012081835280955050505050506000915054906101000a900460ff1681565b6001818154811061026a57fe5b906000526020600020016000915090508054600181600116156101000203166002900480601f01602080910402602001604051908101604052809291908181526020018280546001816001161561010002031660029004801561030e5780601f106102e35761010080835404028352916020019161030e565b820191906000526020600020905b8154815290600101906020018083116102f157829003601f168201915b505050505081565b6001151561032382610186565b15151461032c57fe5b600160008260405161033e91906105f7565b908152602001604051809103902060008282829054906101000a900460ff160192506101000a81548160ff021916908360ff16021790555050565b600082601f83011261038a57600080fd5b813561039d610398826106aa565b61067d565b915080825260208301602083018583830111156103b957600080fd5b6103c483828461076c565b50505092915050565b600082601f8301126103de57600080fd5b81356103f16103ec826106d6565b61067d565b9150808252602083016020830185838301111561040d57600080fd5b61041883828461076c565b50505092915050565b600081359050610430816107bf565b92915050565b60006020828403121561044857600080fd5b600082013567ffffffffffffffff81111561046257600080fd5b61046e84828501610379565b91505092915050565b60006020828403121561048957600080fd5b600082013567ffffffffffffffff8111156104a357600080fd5b6104af848285016103cd565b91505092915050565b6000602082840312156104ca57600080fd5b60006104d884828501610421565b91505092915050565b6104ea81610749565b82525050565b60006104fb82610722565b610505818561073e565b935061051581856020860161077b565b80840191505092915050565b600061052c82610717565b610536818561072d565b935061054681856020860161077b565b61054f816107ae565b840191505092915050565b600081546001811660008114610577576001811461059c576105e0565b607f6002830416610588818761073e565b955060ff19831686528086019350506105e0565b600282046105aa818761073e565b95506105b585610702565b60005b828110156105d7578154818901526001820191506020810190506105b8565b82880195505050505b505092915050565b6105f18161075f565b82525050565b600061060382846104f0565b915081905092915050565b600061061a828461055a565b915081905092915050565b600060208201905061063a60008301846104e1565b92915050565b6000602082019050818103600083015261065a8184610521565b905092915050565b600060208201905061067760008301846105e8565b92915050565b6000604051905081810181811067ffffffffffffffff821117156106a057600080fd5b8060405250919050565b600067ffffffffffffffff8211156106c157600080fd5b601f19601f8301169050602081019050919050565b600067ffffffffffffffff8211156106ed57600080fd5b601f19601f8301169050602081019050919050565b60008190508160005260206000209050919050565b600081519050919050565b600081519050919050565b600082825260208201905092915050565b600081905092915050565b60008115159050919050565b6000819050919050565b600060ff82169050919050565b82818337600083830152505050565b60005b8381101561079957808201518184015260208101905061077e565b838111156107a8576000848401525b50505050565b6000601f19601f8301169050919050565b6107c881610755565b81146107d357600080fd5b5056fea365627a7a72315820824e965a3a4d22a3e8efe1a9e5663e254e841f24094c5764f3c7cd7db1de5ff96c6578706572696d656e74616cf564736f6c63430005100040",
  "source": "// SPDX-License-Identifier: MIT\r\npragma experimental ABIEncoderV2;\r\npragma solidity >=0.5.0 <0.7.0;\r\n\r\ncontract Voting {\r\n\r\n    // liyuechun -> 10\r\n  // xietingfeng -> 5\r\n  // liudehua -> 20\r\n  mapping (string => uint8) public votesReceived;\r\n\r\n  // 存储候选人名字的数组\r\n  string[] public candidateList;\r\n\r\n  // 构造函数 初始化候选人名单\r\n  constructor(string[] memory _candidateList) public{\r\n\r\n    candidateList = _candidateList;\r\n  }\r\n\r\n  // 查询某个候选人的总票数\r\n  function totalVotesFor(string memory candidate)  public view returns (uint8) {\r\n    require(validCandidate(candidate) == true);\r\n    // 或者\r\n    // assert(validCandidate(candidate) == true);\r\n    return votesReceived[candidate];\r\n  }\r\n\r\n  // 为某个候选人投票\r\n  function voteForCandidate(string memory candidate) public {\r\n    assert(validCandidate(candidate) == true);\r\n    votesReceived[candidate] += 1;\r\n  }\r\n\r\n  // 检索投票的姓名是不是候选人的名字\r\n  function validCandidate(string memory candidate) view public returns (bool) {\r\n    for(uint i = 0; i < candidateList.length; i++) {\r\n\r\n      if (keccak256(abi.encodePacked(candidateList[i])) == keccak256(abi.encodePacked(candidate))) {\r\n        return true;\r\n      }\r\n    }\r\n    return false;\r\n  }\r\n}\r\n",
  "sourcePath": "E:/react-demo/contracts/Voting.sol",
  "compiler": {
    "name": "solc",
    "version": "0.5.16+commit.9c3226ce.Emscripten.clang"
  },
  "schemaVersion": "3.4.1",
  "updatedAt": "2021-06-17T08:27:20.565Z",
  "devdoc": {
    "methods": {}
  },
  "userdoc": {
    "methods": {}
  }
}